{
  "_format": "hh-sol-artifact-1",
  "contractName": "TimeLock",
  "sourceName": "contracts/governance_standard/TimeLock.sol",
  "abi": [
    {
      "inputs": [
        {
          "internalType": "uint256",
          "name": "minDelay",
          "type": "uint256"
        },
        {
          "internalType": "address[]",
          "name": "proposers",
          "type": "address[]"
        },
        {
          "internalType": "address[]",
          "name": "executers",
          "type": "address[]"
        }
      ],
      "stateMutability": "nonpayable",
      "type": "constructor"
    },
    {
      "anonymous": false,
      "inputs": [
        {
          "indexed": true,
          "internalType": "bytes32",
          "name": "id",
          "type": "bytes32"
        },
        {
          "indexed": true,
          "internalType": "uint256",
          "name": "index",
          "type": "uint256"
        },
        {
          "indexed": false,
          "internalType": "address",
          "name": "target",
          "type": "address"
        },
        {
          "indexed": false,
          "internalType": "uint256",
          "name": "value",
          "type": "uint256"
        },
        {
          "indexed": false,
          "internalType": "bytes",
          "name": "data",
          "type": "bytes"
        }
      ],
      "name": "CallExecuted",
      "type": "event"
    },
    {
      "anonymous": false,
      "inputs": [
        {
          "indexed": true,
          "internalType": "bytes32",
          "name": "id",
          "type": "bytes32"
        },
        {
          "indexed": true,
          "internalType": "uint256",
          "name": "index",
          "type": "uint256"
        },
        {
          "indexed": false,
          "internalType": "address",
          "name": "target",
          "type": "address"
        },
        {
          "indexed": false,
          "internalType": "uint256",
          "name": "value",
          "type": "uint256"
        },
        {
          "indexed": false,
          "internalType": "bytes",
          "name": "data",
          "type": "bytes"
        },
        {
          "indexed": false,
          "internalType": "bytes32",
          "name": "predecessor",
          "type": "bytes32"
        },
        {
          "indexed": false,
          "internalType": "uint256",
          "name": "delay",
          "type": "uint256"
        }
      ],
      "name": "CallScheduled",
      "type": "event"
    },
    {
      "anonymous": false,
      "inputs": [
        {
          "indexed": true,
          "internalType": "bytes32",
          "name": "id",
          "type": "bytes32"
        }
      ],
      "name": "Cancelled",
      "type": "event"
    },
    {
      "anonymous": false,
      "inputs": [
        {
          "indexed": false,
          "internalType": "uint256",
          "name": "oldDuration",
          "type": "uint256"
        },
        {
          "indexed": false,
          "internalType": "uint256",
          "name": "newDuration",
          "type": "uint256"
        }
      ],
      "name": "MinDelayChange",
      "type": "event"
    },
    {
      "anonymous": false,
      "inputs": [
        {
          "indexed": true,
          "internalType": "bytes32",
          "name": "role",
          "type": "bytes32"
        },
        {
          "indexed": true,
          "internalType": "bytes32",
          "name": "previousAdminRole",
          "type": "bytes32"
        },
        {
          "indexed": true,
          "internalType": "bytes32",
          "name": "newAdminRole",
          "type": "bytes32"
        }
      ],
      "name": "RoleAdminChanged",
      "type": "event"
    },
    {
      "anonymous": false,
      "inputs": [
        {
          "indexed": true,
          "internalType": "bytes32",
          "name": "role",
          "type": "bytes32"
        },
        {
          "indexed": true,
          "internalType": "address",
          "name": "account",
          "type": "address"
        },
        {
          "indexed": true,
          "internalType": "address",
          "name": "sender",
          "type": "address"
        }
      ],
      "name": "RoleGranted",
      "type": "event"
    },
    {
      "anonymous": false,
      "inputs": [
        {
          "indexed": true,
          "internalType": "bytes32",
          "name": "role",
          "type": "bytes32"
        },
        {
          "indexed": true,
          "internalType": "address",
          "name": "account",
          "type": "address"
        },
        {
          "indexed": true,
          "internalType": "address",
          "name": "sender",
          "type": "address"
        }
      ],
      "name": "RoleRevoked",
      "type": "event"
    },
    {
      "inputs": [],
      "name": "DEFAULT_ADMIN_ROLE",
      "outputs": [
        {
          "internalType": "bytes32",
          "name": "",
          "type": "bytes32"
        }
      ],
      "stateMutability": "view",
      "type": "function"
    },
    {
      "inputs": [],
      "name": "EXECUTOR_ROLE",
      "outputs": [
        {
          "internalType": "bytes32",
          "name": "",
          "type": "bytes32"
        }
      ],
      "stateMutability": "view",
      "type": "function"
    },
    {
      "inputs": [],
      "name": "PROPOSER_ROLE",
      "outputs": [
        {
          "internalType": "bytes32",
          "name": "",
          "type": "bytes32"
        }
      ],
      "stateMutability": "view",
      "type": "function"
    },
    {
      "inputs": [],
      "name": "TIMELOCK_ADMIN_ROLE",
      "outputs": [
        {
          "internalType": "bytes32",
          "name": "",
          "type": "bytes32"
        }
      ],
      "stateMutability": "view",
      "type": "function"
    },
    {
      "inputs": [
        {
          "internalType": "bytes32",
          "name": "id",
          "type": "bytes32"
        }
      ],
      "name": "cancel",
      "outputs": [],
      "stateMutability": "nonpayable",
      "type": "function"
    },
    {
      "inputs": [
        {
          "internalType": "address",
          "name": "target",
          "type": "address"
        },
        {
          "internalType": "uint256",
          "name": "value",
          "type": "uint256"
        },
        {
          "internalType": "bytes",
          "name": "data",
          "type": "bytes"
        },
        {
          "internalType": "bytes32",
          "name": "predecessor",
          "type": "bytes32"
        },
        {
          "internalType": "bytes32",
          "name": "salt",
          "type": "bytes32"
        }
      ],
      "name": "execute",
      "outputs": [],
      "stateMutability": "payable",
      "type": "function"
    },
    {
      "inputs": [
        {
          "internalType": "address[]",
          "name": "targets",
          "type": "address[]"
        },
        {
          "internalType": "uint256[]",
          "name": "values",
          "type": "uint256[]"
        },
        {
          "internalType": "bytes[]",
          "name": "datas",
          "type": "bytes[]"
        },
        {
          "internalType": "bytes32",
          "name": "predecessor",
          "type": "bytes32"
        },
        {
          "internalType": "bytes32",
          "name": "salt",
          "type": "bytes32"
        }
      ],
      "name": "executeBatch",
      "outputs": [],
      "stateMutability": "payable",
      "type": "function"
    },
    {
      "inputs": [],
      "name": "getMinDelay",
      "outputs": [
        {
          "internalType": "uint256",
          "name": "duration",
          "type": "uint256"
        }
      ],
      "stateMutability": "view",
      "type": "function"
    },
    {
      "inputs": [
        {
          "internalType": "bytes32",
          "name": "role",
          "type": "bytes32"
        }
      ],
      "name": "getRoleAdmin",
      "outputs": [
        {
          "internalType": "bytes32",
          "name": "",
          "type": "bytes32"
        }
      ],
      "stateMutability": "view",
      "type": "function"
    },
    {
      "inputs": [
        {
          "internalType": "bytes32",
          "name": "id",
          "type": "bytes32"
        }
      ],
      "name": "getTimestamp",
      "outputs": [
        {
          "internalType": "uint256",
          "name": "timestamp",
          "type": "uint256"
        }
      ],
      "stateMutability": "view",
      "type": "function"
    },
    {
      "inputs": [
        {
          "internalType": "bytes32",
          "name": "role",
          "type": "bytes32"
        },
        {
          "internalType": "address",
          "name": "account",
          "type": "address"
        }
      ],
      "name": "grantRole",
      "outputs": [],
      "stateMutability": "nonpayable",
      "type": "function"
    },
    {
      "inputs": [
        {
          "internalType": "bytes32",
          "name": "role",
          "type": "bytes32"
        },
        {
          "internalType": "address",
          "name": "account",
          "type": "address"
        }
      ],
      "name": "hasRole",
      "outputs": [
        {
          "internalType": "bool",
          "name": "",
          "type": "bool"
        }
      ],
      "stateMutability": "view",
      "type": "function"
    },
    {
      "inputs": [
        {
          "internalType": "address",
          "name": "target",
          "type": "address"
        },
        {
          "internalType": "uint256",
          "name": "value",
          "type": "uint256"
        },
        {
          "internalType": "bytes",
          "name": "data",
          "type": "bytes"
        },
        {
          "internalType": "bytes32",
          "name": "predecessor",
          "type": "bytes32"
        },
        {
          "internalType": "bytes32",
          "name": "salt",
          "type": "bytes32"
        }
      ],
      "name": "hashOperation",
      "outputs": [
        {
          "internalType": "bytes32",
          "name": "hash",
          "type": "bytes32"
        }
      ],
      "stateMutability": "pure",
      "type": "function"
    },
    {
      "inputs": [
        {
          "internalType": "address[]",
          "name": "targets",
          "type": "address[]"
        },
        {
          "internalType": "uint256[]",
          "name": "values",
          "type": "uint256[]"
        },
        {
          "internalType": "bytes[]",
          "name": "datas",
          "type": "bytes[]"
        },
        {
          "internalType": "bytes32",
          "name": "predecessor",
          "type": "bytes32"
        },
        {
          "internalType": "bytes32",
          "name": "salt",
          "type": "bytes32"
        }
      ],
      "name": "hashOperationBatch",
      "outputs": [
        {
          "internalType": "bytes32",
          "name": "hash",
          "type": "bytes32"
        }
      ],
      "stateMutability": "pure",
      "type": "function"
    },
    {
      "inputs": [
        {
          "internalType": "bytes32",
          "name": "id",
          "type": "bytes32"
        }
      ],
      "name": "isOperation",
      "outputs": [
        {
          "internalType": "bool",
          "name": "pending",
          "type": "bool"
        }
      ],
      "stateMutability": "view",
      "type": "function"
    },
    {
      "inputs": [
        {
          "internalType": "bytes32",
          "name": "id",
          "type": "bytes32"
        }
      ],
      "name": "isOperationDone",
      "outputs": [
        {
          "internalType": "bool",
          "name": "done",
          "type": "bool"
        }
      ],
      "stateMutability": "view",
      "type": "function"
    },
    {
      "inputs": [
        {
          "internalType": "bytes32",
          "name": "id",
          "type": "bytes32"
        }
      ],
      "name": "isOperationPending",
      "outputs": [
        {
          "internalType": "bool",
          "name": "pending",
          "type": "bool"
        }
      ],
      "stateMutability": "view",
      "type": "function"
    },
    {
      "inputs": [
        {
          "internalType": "bytes32",
          "name": "id",
          "type": "bytes32"
        }
      ],
      "name": "isOperationReady",
      "outputs": [
        {
          "internalType": "bool",
          "name": "ready",
          "type": "bool"
        }
      ],
      "stateMutability": "view",
      "type": "function"
    },
    {
      "inputs": [
        {
          "internalType": "bytes32",
          "name": "role",
          "type": "bytes32"
        },
        {
          "internalType": "address",
          "name": "account",
          "type": "address"
        }
      ],
      "name": "renounceRole",
      "outputs": [],
      "stateMutability": "nonpayable",
      "type": "function"
    },
    {
      "inputs": [
        {
          "internalType": "bytes32",
          "name": "role",
          "type": "bytes32"
        },
        {
          "internalType": "address",
          "name": "account",
          "type": "address"
        }
      ],
      "name": "revokeRole",
      "outputs": [],
      "stateMutability": "nonpayable",
      "type": "function"
    },
    {
      "inputs": [
        {
          "internalType": "address",
          "name": "target",
          "type": "address"
        },
        {
          "internalType": "uint256",
          "name": "value",
          "type": "uint256"
        },
        {
          "internalType": "bytes",
          "name": "data",
          "type": "bytes"
        },
        {
          "internalType": "bytes32",
          "name": "predecessor",
          "type": "bytes32"
        },
        {
          "internalType": "bytes32",
          "name": "salt",
          "type": "bytes32"
        },
        {
          "internalType": "uint256",
          "name": "delay",
          "type": "uint256"
        }
      ],
      "name": "schedule",
      "outputs": [],
      "stateMutability": "nonpayable",
      "type": "function"
    },
    {
      "inputs": [
        {
          "internalType": "address[]",
          "name": "targets",
          "type": "address[]"
        },
        {
          "internalType": "uint256[]",
          "name": "values",
          "type": "uint256[]"
        },
        {
          "internalType": "bytes[]",
          "name": "datas",
          "type": "bytes[]"
        },
        {
          "internalType": "bytes32",
          "name": "predecessor",
          "type": "bytes32"
        },
        {
          "internalType": "bytes32",
          "name": "salt",
          "type": "bytes32"
        },
        {
          "internalType": "uint256",
          "name": "delay",
          "type": "uint256"
        }
      ],
      "name": "scheduleBatch",
      "outputs": [],
      "stateMutability": "nonpayable",
      "type": "function"
    },
    {
      "inputs": [
        {
          "internalType": "bytes4",
          "name": "interfaceId",
          "type": "bytes4"
        }
      ],
      "name": "supportsInterface",
      "outputs": [
        {
          "internalType": "bool",
          "name": "",
          "type": "bool"
        }
      ],
      "stateMutability": "view",
      "type": "function"
    },
    {
      "inputs": [
        {
          "internalType": "uint256",
          "name": "newDelay",
          "type": "uint256"
        }
      ],
      "name": "updateDelay",
      "outputs": [],
      "stateMutability": "nonpayable",
      "type": "function"
    },
    {
      "stateMutability": "payable",
      "type": "receive"
    }
  ],
  "bytecode": "0x60806040523480156200001157600080fd5b50604051620034ae380380620034ae8339818101604052810190620000379190620005c7565b8282826200006c7f5f58e3a2316349923ce3780f8d587db2d72378aed66a8261c916544fa6846ca580620002fc60201b60201c565b620000be7fb09aa5aeb3702cfd50b6b62bc4532604938f21248a27a1d5ca736082b6819cc17f5f58e3a2316349923ce3780f8d587db2d72378aed66a8261c916544fa6846ca5620002fc60201b60201c565b620001107fd8aa0f3194971a2a116679f7c2090f6939c8d4e01a2a8d7e41d55e5351469e637f5f58e3a2316349923ce3780f8d587db2d72378aed66a8261c916544fa6846ca5620002fc60201b60201c565b620001517f5f58e3a2316349923ce3780f8d587db2d72378aed66a8261c916544fa6846ca5620001456200035f60201b60201c565b6200036760201b60201c565b620001837f5f58e3a2316349923ce3780f8d587db2d72378aed66a8261c916544fa6846ca5306200036760201b60201c565b60005b82518110156200021757620002037fb09aa5aeb3702cfd50b6b62bc4532604938f21248a27a1d5ca736082b6819cc1848381518110620001ef577f4e487b7100000000000000000000000000000000000000000000000000000000600052603260045260246000fd5b60200260200101516200036760201b60201c565b806200020f9062000753565b905062000186565b5060005b8151811015620002ac57620002987fd8aa0f3194971a2a116679f7c2090f6939c8d4e01a2a8d7e41d55e5351469e6383838151811062000284577f4e487b7100000000000000000000000000000000000000000000000000000000600052603260045260246000fd5b60200260200101516200036760201b60201c565b80620002a49062000753565b90506200021b565b50826002819055507f11c24f4ead16507c69ac467fbd5e4eed5fb5c699626d2cc6d66421df253886d5600084604051620002e892919062000671565b60405180910390a150505050505062000833565b60006200030f836200037d60201b60201c565b905081600080858152602001908152602001600020600101819055508181847fbd79b86ffe0ab8e8776151514217cd7cacd52c909f66475c3af44e129f0b00ff60405160405180910390a4505050565b600033905090565b6200037982826200039c60201b60201c565b5050565b6000806000838152602001908152602001600020600101549050919050565b620003ae82826200048d60201b60201c565b6200048957600160008084815260200190815260200160002060000160008373ffffffffffffffffffffffffffffffffffffffff1673ffffffffffffffffffffffffffffffffffffffff16815260200190815260200160002060006101000a81548160ff0219169083151502179055506200042e6200035f60201b60201c565b73ffffffffffffffffffffffffffffffffffffffff168173ffffffffffffffffffffffffffffffffffffffff16837f2f8788117e7eff1d82e926ec794901d17c78024a50270940304540a733656f0d60405160405180910390a45b5050565b600080600084815260200190815260200160002060000160008373ffffffffffffffffffffffffffffffffffffffff1673ffffffffffffffffffffffffffffffffffffffff16815260200190815260200160002060009054906101000a900460ff16905092915050565b60006200050e6200050884620006d2565b6200069e565b905080838252602082019050828560208602820111156200052e57600080fd5b60005b858110156200056257816200054788826200056c565b84526020840193506020830192505060018101905062000531565b5050509392505050565b6000815190506200057d81620007ff565b92915050565b600082601f8301126200059557600080fd5b8151620005a7848260208601620004f7565b91505092915050565b600081519050620005c18162000819565b92915050565b600080600060608486031215620005dd57600080fd5b6000620005ed86828701620005b0565b935050602084015167ffffffffffffffff8111156200060b57600080fd5b620006198682870162000583565b925050604084015167ffffffffffffffff8111156200063757600080fd5b620006458682870162000583565b9150509250925092565b6200065a816200073f565b82525050565b6200066b8162000735565b82525050565b60006040820190506200068860008301856200064f565b62000697602083018462000660565b9392505050565b6000604051905081810181811067ffffffffffffffff82111715620006c857620006c7620007d0565b5b8060405250919050565b600067ffffffffffffffff821115620006f057620006ef620007d0565b5b602082029050602081019050919050565b60006200070e8262000715565b9050919050565b600073ffffffffffffffffffffffffffffffffffffffff82169050919050565b6000819050919050565b60006200074c8262000735565b9050919050565b6000620007608262000735565b91507fffffffffffffffffffffffffffffffffffffffffffffffffffffffffffffffff821415620007965762000795620007a1565b5b600182019050919050565b7f4e487b7100000000000000000000000000000000000000000000000000000000600052601160045260246000fd5b7f4e487b7100000000000000000000000000000000000000000000000000000000600052604160045260246000fd5b6200080a8162000701565b81146200081657600080fd5b50565b620008248162000735565b81146200083057600080fd5b50565b612c6b80620008436000396000f3fe60806040526004361061014f5760003560e01c806364d62353116100b6578063b1c5f4271161006f578063b1c5f427146104d8578063c4d252f514610515578063d45c44351461053e578063d547741f1461057b578063e38335e5146105a4578063f27a0c92146105c057610156565b806364d62353146103b65780638065657f146103df5780638f2a0bb01461041c5780638f61f4f51461044557806391d1485414610470578063a217fddf146104ad57610156565b8063248a9ca311610108578063248a9ca3146102705780632ab0f529146102ad5780632f2ff15d146102ea57806331d507501461031357806336568abe14610350578063584b153e1461037957610156565b806301d5062a1461015b57806301ffc9a71461018457806307bd0265146101c15780630d3cf6fc146101ec578063134008d31461021757806313bc9f201461023357610156565b3661015657005b600080fd5b34801561016757600080fd5b50610182600480360381019061017d9190611abb565b6105eb565b005b34801561019057600080fd5b506101ab60048036038101906101a69190611d72565b610688565b6040516101b89190612660565b60405180910390f35b3480156101cd57600080fd5b506101d6610702565b6040516101e3919061267b565b60405180910390f35b3480156101f857600080fd5b50610201610726565b60405161020e919061267b565b60405180910390f35b610231600480360381019061022c9190611a29565b61074a565b005b34801561023f57600080fd5b5061025a60048036038101906102559190611d0d565b6107ca565b6040516102679190612660565b60405180910390f35b34801561027c57600080fd5b5061029760048036038101906102929190611d0d565b6107f0565b6040516102a4919061267b565b60405180910390f35b3480156102b957600080fd5b506102d460048036038101906102cf9190611d0d565b61080f565b6040516102e19190612660565b60405180910390f35b3480156102f657600080fd5b50610311600480360381019061030c9190611d36565b610824565b005b34801561031f57600080fd5b5061033a60048036038101906103359190611d0d565b61084d565b6040516103479190612660565b60405180910390f35b34801561035c57600080fd5b5061037760048036038101906103729190611d36565b610861565b005b34801561038557600080fd5b506103a0600480360381019061039b9190611d0d565b6108e4565b6040516103ad9190612660565b60405180910390f35b3480156103c257600080fd5b506103dd60048036038101906103d89190611d9b565b6108f9565b005b3480156103eb57600080fd5b5061040660048036038101906104019190611a29565b6109ac565b604051610413919061267b565b60405180910390f35b34801561042857600080fd5b50610443600480360381019061043e9190611c2e565b6109eb565b005b34801561045157600080fd5b5061045a610c10565b604051610467919061267b565b60405180910390f35b34801561047c57600080fd5b5061049760048036038101906104929190611d36565b610c34565b6040516104a49190612660565b60405180910390f35b3480156104b957600080fd5b506104c2610c9e565b6040516104cf919061267b565b60405180910390f35b3480156104e457600080fd5b506104ff60048036038101906104fa9190611b62565b610ca5565b60405161050c919061267b565b60405180910390f35b34801561052157600080fd5b5061053c60048036038101906105379190611d0d565b610cea565b005b34801561054a57600080fd5b5061056560048036038101906105609190611d0d565b610dac565b60405161057291906127f8565b60405180910390f35b34801561058757600080fd5b506105a2600480360381019061059d9190611d36565b610dc9565b005b6105be60048036038101906105b99190611b62565b610df2565b005b3480156105cc57600080fd5b506105d5610ffa565b6040516105e291906127f8565b60405180910390f35b7fb09aa5aeb3702cfd50b6b62bc4532604938f21248a27a1d5ca736082b6819cc161061d81610618611004565b61100c565b600061062d8989898989896109ac565b905061063981846110a9565b6000817f4cf4410cc57040e44862ef0f45f3dd5a5e02db8eb8add648d4b0e236f1d07dca8b8b8b8b8b8a60405161067596959493929190612596565b60405180910390a3505050505050505050565b60007f7965db0b000000000000000000000000000000000000000000000000000000007bffffffffffffffffffffffffffffffffffffffffffffffffffffffff1916827bffffffffffffffffffffffffffffffffffffffffffffffffffffffff191614806106fb57506106fa82611163565b5b9050919050565b7fd8aa0f3194971a2a116679f7c2090f6939c8d4e01a2a8d7e41d55e5351469e6381565b7f5f58e3a2316349923ce3780f8d587db2d72378aed66a8261c916544fa6846ca581565b7fd8aa0f3194971a2a116679f7c2090f6939c8d4e01a2a8d7e41d55e5351469e63610776816000610c34565b61078c5761078b81610786611004565b61100c565b5b600061079c8888888888886109ac565b90506107a881856111cd565b6107b78160008a8a8a8a61126e565b6107c081611366565b5050505050505050565b6000806107d683610dac565b90506001811180156107e85750428111155b915050919050565b6000806000838152602001908152602001600020600101549050919050565b6000600161081c83610dac565b149050919050565b61082d826107f0565b61083e81610839611004565b61100c565b61084883836113c9565b505050565b60008061085983610dac565b119050919050565b610869611004565b73ffffffffffffffffffffffffffffffffffffffff168173ffffffffffffffffffffffffffffffffffffffff16146108d6576040517f08c379a00000000000000000000000000000000000000000000000000000000081526004016108cd906127b8565b60405180910390fd5b6108e082826114a9565b5050565b600060016108f183610dac565b119050919050565b3073ffffffffffffffffffffffffffffffffffffffff163373ffffffffffffffffffffffffffffffffffffffff1614610967576040517f08c379a000000000000000000000000000000000000000000000000000000000815260040161095e90612798565b60405180910390fd5b7f11c24f4ead16507c69ac467fbd5e4eed5fb5c699626d2cc6d66421df253886d56002548260405161099a929190612813565b60405180910390a18060028190555050565b60008686868686866040516020016109c99695949392919061253a565b6040516020818303038152906040528051906020012090509695505050505050565b7fb09aa5aeb3702cfd50b6b62bc4532604938f21248a27a1d5ca736082b6819cc1610a1d81610a18611004565b61100c565b878790508a8a905014610a65576040517f08c379a0000000000000000000000000000000000000000000000000000000008152600401610a5c906126f8565b60405180910390fd5b858590508a8a905014610aad576040517f08c379a0000000000000000000000000000000000000000000000000000000008152600401610aa4906126f8565b60405180910390fd5b6000610abf8b8b8b8b8b8b8b8b610ca5565b9050610acb81846110a9565b60005b8b8b9050811015610c025780827f4cf4410cc57040e44862ef0f45f3dd5a5e02db8eb8add648d4b0e236f1d07dca8e8e85818110610b35577f4e487b7100000000000000000000000000000000000000000000000000000000600052603260045260246000fd5b9050602002016020810190610b4a9190611a00565b8d8d86818110610b83577f4e487b7100000000000000000000000000000000000000000000000000000000600052603260045260246000fd5b905060200201358c8c87818110610bc3577f4e487b7100000000000000000000000000000000000000000000000000000000600052603260045260246000fd5b9050602002810190610bd5919061283c565b8c8b604051610be996959493929190612596565b60405180910390a380610bfb90612b50565b9050610ace565b505050505050505050505050565b7fb09aa5aeb3702cfd50b6b62bc4532604938f21248a27a1d5ca736082b6819cc181565b600080600084815260200190815260200160002060000160008373ffffffffffffffffffffffffffffffffffffffff1673ffffffffffffffffffffffffffffffffffffffff16815260200190815260200160002060009054906101000a900460ff16905092915050565b6000801b81565b60008888888888888888604051602001610cc69897969594939291906125f2565b60405160208183030381529060405280519060200120905098975050505050505050565b7fb09aa5aeb3702cfd50b6b62bc4532604938f21248a27a1d5ca736082b6819cc1610d1c81610d17611004565b61100c565b610d25826108e4565b610d64576040517f08c379a0000000000000000000000000000000000000000000000000000000008152600401610d5b90612778565b60405180910390fd5b6001600083815260200190815260200160002060009055817fbaa1eb22f2a492ba1a5fea61b8df4d27c6c8b5f3971e63bb58fa14ff72eedb7060405160405180910390a25050565b600060016000838152602001908152602001600020549050919050565b610dd2826107f0565b610de381610dde611004565b61100c565b610ded83836114a9565b505050565b7fd8aa0f3194971a2a116679f7c2090f6939c8d4e01a2a8d7e41d55e5351469e63610e1e816000610c34565b610e3457610e3381610e2e611004565b61100c565b5b868690508989905014610e7c576040517f08c379a0000000000000000000000000000000000000000000000000000000008152600401610e73906126f8565b60405180910390fd5b848490508989905014610ec4576040517f08c379a0000000000000000000000000000000000000000000000000000000008152600401610ebb906126f8565b60405180910390fd5b6000610ed68a8a8a8a8a8a8a8a610ca5565b9050610ee281856111cd565b60005b8a8a9050811015610fe457610fd382828d8d85818110610f2e577f4e487b7100000000000000000000000000000000000000000000000000000000600052603260045260246000fd5b9050602002016020810190610f439190611a00565b8c8c86818110610f7c577f4e487b7100000000000000000000000000000000000000000000000000000000600052603260045260246000fd5b905060200201358b8b87818110610fbc577f4e487b7100000000000000000000000000000000000000000000000000000000600052603260045260246000fd5b9050602002810190610fce919061283c565b61126e565b80610fdd90612b50565b9050610ee5565b50610fee81611366565b50505050505050505050565b6000600254905090565b600033905090565b6110168282610c34565b6110a55761103b8173ffffffffffffffffffffffffffffffffffffffff16601461158a565b6110498360001c602061158a565b60405160200161105a9291906124c0565b6040516020818303038152906040526040517f08c379a000000000000000000000000000000000000000000000000000000000815260040161109c9190612696565b60405180910390fd5b5050565b6110b28261084d565b156110f2576040517f08c379a00000000000000000000000000000000000000000000000000000000081526004016110e990612738565b60405180910390fd5b6110fa610ffa565b81101561113c576040517f08c379a000000000000000000000000000000000000000000000000000000000815260040161113390612718565b60405180910390fd5b804261114891906129b6565b60016000848152602001908152602001600020819055505050565b60007f01ffc9a7000000000000000000000000000000000000000000000000000000007bffffffffffffffffffffffffffffffffffffffffffffffffffffffff1916827bffffffffffffffffffffffffffffffffffffffffffffffffffffffff1916149050919050565b6111d6826107ca565b611215576040517f08c379a000000000000000000000000000000000000000000000000000000000815260040161120c90612758565b60405180910390fd5b6000801b81148061122b575061122a8161080f565b5b61126a576040517f08c379a0000000000000000000000000000000000000000000000000000000008152600401611261906126d8565b60405180910390fd5b5050565b60008473ffffffffffffffffffffffffffffffffffffffff168484846040516112989291906124a7565b60006040518083038185875af1925050503d80600081146112d5576040519150601f19603f3d011682016040523d82523d6000602084013e6112da565b606091505b505090508061131e576040517f08c379a0000000000000000000000000000000000000000000000000000000008152600401611315906127d8565b60405180910390fd5b85877fc2617efa69bab66782fa219543714338489c4e9e178271560a91b82c3f612b588787878760405161135594939291906124fa565b60405180910390a350505050505050565b61136f816107ca565b6113ae576040517f08c379a00000000000000000000000000000000000000000000000000000000081526004016113a590612758565b60405180910390fd5b60018060008381526020019081526020016000208190555050565b6113d38282610c34565b6114a557600160008084815260200190815260200160002060000160008373ffffffffffffffffffffffffffffffffffffffff1673ffffffffffffffffffffffffffffffffffffffff16815260200190815260200160002060006101000a81548160ff02191690831515021790555061144a611004565b73ffffffffffffffffffffffffffffffffffffffff168173ffffffffffffffffffffffffffffffffffffffff16837f2f8788117e7eff1d82e926ec794901d17c78024a50270940304540a733656f0d60405160405180910390a45b5050565b6114b38282610c34565b1561158657600080600084815260200190815260200160002060000160008373ffffffffffffffffffffffffffffffffffffffff1673ffffffffffffffffffffffffffffffffffffffff16815260200190815260200160002060006101000a81548160ff02191690831515021790555061152b611004565b73ffffffffffffffffffffffffffffffffffffffff168173ffffffffffffffffffffffffffffffffffffffff16837ff6391f5c32d9c69d2a47ea670b442974b53935d1edc7fd64eb21e047a839171b60405160405180910390a45b5050565b60606000600283600261159d9190612a0c565b6115a791906129b6565b67ffffffffffffffff8111156115e6577f4e487b7100000000000000000000000000000000000000000000000000000000600052604160045260246000fd5b6040519080825280601f01601f1916602001820160405280156116185781602001600182028036833780820191505090505b5090507f300000000000000000000000000000000000000000000000000000000000000081600081518110611676577f4e487b7100000000000000000000000000000000000000000000000000000000600052603260045260246000fd5b60200101907effffffffffffffffffffffffffffffffffffffffffffffffffffffffffffff1916908160001a9053507f780000000000000000000000000000000000000000000000000000000000000081600181518110611700577f4e487b7100000000000000000000000000000000000000000000000000000000600052603260045260246000fd5b60200101907effffffffffffffffffffffffffffffffffffffffffffffffffffffffffffff1916908160001a905350600060018460026117409190612a0c565b61174a91906129b6565b90505b6001811115611836577f3031323334353637383961626364656600000000000000000000000000000000600f8616601081106117b2577f4e487b7100000000000000000000000000000000000000000000000000000000600052603260045260246000fd5b1a60f81b8282815181106117ef577f4e487b7100000000000000000000000000000000000000000000000000000000600052603260045260246000fd5b60200101907effffffffffffffffffffffffffffffffffffffffffffffffffffffffffffff1916908160001a905350600485901c94508061182f90612b26565b905061174d565b506000841461187a576040517f08c379a0000000000000000000000000000000000000000000000000000000008152600401611871906126b8565b60405180910390fd5b8091505092915050565b60008135905061189381612bd9565b92915050565b60008083601f8401126118ab57600080fd5b8235905067ffffffffffffffff8111156118c457600080fd5b6020830191508360208202830111156118dc57600080fd5b9250929050565b60008083601f8401126118f557600080fd5b8235905067ffffffffffffffff81111561190e57600080fd5b60208301915083602082028301111561192657600080fd5b9250929050565b60008083601f84011261193f57600080fd5b8235905067ffffffffffffffff81111561195857600080fd5b60208301915083602082028301111561197057600080fd5b9250929050565b60008135905061198681612bf0565b92915050565b60008135905061199b81612c07565b92915050565b60008083601f8401126119b357600080fd5b8235905067ffffffffffffffff8111156119cc57600080fd5b6020830191508360018202830111156119e457600080fd5b9250929050565b6000813590506119fa81612c1e565b92915050565b600060208284031215611a1257600080fd5b6000611a2084828501611884565b91505092915050565b60008060008060008060a08789031215611a4257600080fd5b6000611a5089828a01611884565b9650506020611a6189828a016119eb565b955050604087013567ffffffffffffffff811115611a7e57600080fd5b611a8a89828a016119a1565b94509450506060611a9d89828a01611977565b9250506080611aae89828a01611977565b9150509295509295509295565b600080600080600080600060c0888a031215611ad657600080fd5b6000611ae48a828b01611884565b9750506020611af58a828b016119eb565b965050604088013567ffffffffffffffff811115611b1257600080fd5b611b1e8a828b016119a1565b95509550506060611b318a828b01611977565b9350506080611b428a828b01611977565b92505060a0611b538a828b016119eb565b91505092959891949750929550565b60008060008060008060008060a0898b031215611b7e57600080fd5b600089013567ffffffffffffffff811115611b9857600080fd5b611ba48b828c01611899565b9850985050602089013567ffffffffffffffff811115611bc357600080fd5b611bcf8b828c0161192d565b9650965050604089013567ffffffffffffffff811115611bee57600080fd5b611bfa8b828c016118e3565b94509450506060611c0d8b828c01611977565b9250506080611c1e8b828c01611977565b9150509295985092959890939650565b600080600080600080600080600060c08a8c031215611c4c57600080fd5b60008a013567ffffffffffffffff811115611c6657600080fd5b611c728c828d01611899565b995099505060208a013567ffffffffffffffff811115611c9157600080fd5b611c9d8c828d0161192d565b975097505060408a013567ffffffffffffffff811115611cbc57600080fd5b611cc88c828d016118e3565b95509550506060611cdb8c828d01611977565b9350506080611cec8c828d01611977565b92505060a0611cfd8c828d016119eb565b9150509295985092959850929598565b600060208284031215611d1f57600080fd5b6000611d2d84828501611977565b91505092915050565b60008060408385031215611d4957600080fd5b6000611d5785828601611977565b9250506020611d6885828601611884565b9150509250929050565b600060208284031215611d8457600080fd5b6000611d928482850161198c565b91505092915050565b600060208284031215611dad57600080fd5b6000611dbb848285016119eb565b91505092915050565b6000611dd08383611df2565b60208301905092915050565b6000611de9848484611f59565b90509392505050565b611dfb81612a66565b82525050565b611e0a81612a66565b82525050565b6000611e1c83856128cc565b9350611e2782612893565b8060005b85811015611e6057611e3d8284612948565b611e478882611dc4565b9750611e52836128b2565b925050600181019050611e2b565b5085925050509392505050565b6000611e7983856128dd565b935083602084028501611e8b8461289d565b8060005b87811015611ed1578484038952611ea6828461295f565b611eb1868284611ddc565b9550611ebc846128bf565b935060208b019a505050600181019050611e8f565b50829750879450505050509392505050565b6000611eef83856128ee565b93507f07ffffffffffffffffffffffffffffffffffffffffffffffffffffffffffffff831115611f1e57600080fd5b602083029250611f2f838584612ae4565b82840190509392505050565b611f4481612a78565b82525050565b611f5381612a84565b82525050565b6000611f6583856128ff565b9350611f72838584612ae4565b611f7b83612bc8565b840190509392505050565b6000611f928385612910565b9350611f9f838584612ae4565b611fa883612bc8565b840190509392505050565b6000611fbf8385612921565b9350611fcc838584612ae4565b82840190509392505050565b6000611fe3826128a7565b611fed818561292c565b9350611ffd818560208601612af3565b61200681612bc8565b840191505092915050565b600061201c826128a7565b612026818561293d565b9350612036818560208601612af3565b80840191505092915050565b600061204f60208361292c565b91507f537472696e67733a20686578206c656e67746820696e73756666696369656e746000830152602082019050919050565b600061208f60268361292c565b91507f54696d656c6f636b436f6e74726f6c6c65723a206d697373696e67206465706560008301527f6e64656e637900000000000000000000000000000000000000000000000000006020830152604082019050919050565b60006120f560238361292c565b91507f54696d656c6f636b436f6e74726f6c6c65723a206c656e677468206d69736d6160008301527f74636800000000000000000000000000000000000000000000000000000000006020830152604082019050919050565b600061215b60268361292c565b91507f54696d656c6f636b436f6e74726f6c6c65723a20696e73756666696369656e7460008301527f2064656c617900000000000000000000000000000000000000000000000000006020830152604082019050919050565b60006121c1602f8361292c565b91507f54696d656c6f636b436f6e74726f6c6c65723a206f7065726174696f6e20616c60008301527f7265616479207363686564756c656400000000000000000000000000000000006020830152604082019050919050565b6000612227602a8361292c565b91507f54696d656c6f636b436f6e74726f6c6c65723a206f7065726174696f6e20697360008301527f206e6f74207265616479000000000000000000000000000000000000000000006020830152604082019050919050565b600061228d60178361293d565b91507f416363657373436f6e74726f6c3a206163636f756e74200000000000000000006000830152601782019050919050565b60006122cd60318361292c565b91507f54696d656c6f636b436f6e74726f6c6c65723a206f7065726174696f6e20636160008301527f6e6e6f742062652063616e63656c6c65640000000000000000000000000000006020830152604082019050919050565b600061233360118361293d565b91507f206973206d697373696e6720726f6c65200000000000000000000000000000006000830152601182019050919050565b6000612373602b8361292c565b91507f54696d656c6f636b436f6e74726f6c6c65723a2063616c6c6572206d7573742060008301527f62652074696d656c6f636b0000000000000000000000000000000000000000006020830152604082019050919050565b60006123d9602f8361292c565b91507f416363657373436f6e74726f6c3a2063616e206f6e6c792072656e6f756e636560008301527f20726f6c657320666f722073656c6600000000000000000000000000000000006020830152604082019050919050565b600061243f60338361292c565b91507f54696d656c6f636b436f6e74726f6c6c65723a20756e6465726c79696e67207460008301527f72616e73616374696f6e207265766572746564000000000000000000000000006020830152604082019050919050565b6124a181612ada565b82525050565b60006124b4828486611fb3565b91508190509392505050565b60006124cb82612280565b91506124d78285612011565b91506124e282612326565b91506124ee8284612011565b91508190509392505050565b600060608201905061250f6000830187611e01565b61251c6020830186612498565b818103604083015261252f818486611f86565b905095945050505050565b600060a08201905061254f6000830189611e01565b61255c6020830188612498565b818103604083015261256f818688611f86565b905061257e6060830185611f4a565b61258b6080830184611f4a565b979650505050505050565b600060a0820190506125ab6000830189611e01565b6125b86020830188612498565b81810360408301526125cb818688611f86565b90506125da6060830185611f4a565b6125e76080830184612498565b979650505050505050565b600060a082019050818103600083015261260d818a8c611e10565b9050818103602083015261262281888a611ee3565b90508181036040830152612637818688611e6d565b90506126466060830185611f4a565b6126536080830184611f4a565b9998505050505050505050565b60006020820190506126756000830184611f3b565b92915050565b60006020820190506126906000830184611f4a565b92915050565b600060208201905081810360008301526126b08184611fd8565b905092915050565b600060208201905081810360008301526126d181612042565b9050919050565b600060208201905081810360008301526126f181612082565b9050919050565b60006020820190508181036000830152612711816120e8565b9050919050565b600060208201905081810360008301526127318161214e565b9050919050565b60006020820190508181036000830152612751816121b4565b9050919050565b600060208201905081810360008301526127718161221a565b9050919050565b60006020820190508181036000830152612791816122c0565b9050919050565b600060208201905081810360008301526127b181612366565b9050919050565b600060208201905081810360008301526127d1816123cc565b9050919050565b600060208201905081810360008301526127f181612432565b9050919050565b600060208201905061280d6000830184612498565b92915050565b60006040820190506128286000830185612498565b6128356020830184612498565b9392505050565b6000808335600160200384360303811261285557600080fd5b80840192508235915067ffffffffffffffff82111561287357600080fd5b60208301925060018202360383131561288b57600080fd5b509250929050565b6000819050919050565b6000819050919050565b600081519050919050565b6000602082019050919050565b6000602082019050919050565b600082825260208201905092915050565b600082825260208201905092915050565b600082825260208201905092915050565b600082825260208201905092915050565b600082825260208201905092915050565b600081905092915050565b600082825260208201905092915050565b600081905092915050565b60006129576020840184611884565b905092915050565b6000808335600160200384360303811261297857600080fd5b83810192508235915060208301925067ffffffffffffffff82111561299c57600080fd5b6001820236038413156129ae57600080fd5b509250929050565b60006129c182612ada565b91506129cc83612ada565b9250827fffffffffffffffffffffffffffffffffffffffffffffffffffffffffffffffff03821115612a0157612a00612b99565b5b828201905092915050565b6000612a1782612ada565b9150612a2283612ada565b9250817fffffffffffffffffffffffffffffffffffffffffffffffffffffffffffffffff0483118215151615612a5b57612a5a612b99565b5b828202905092915050565b6000612a7182612aba565b9050919050565b60008115159050919050565b6000819050919050565b60007fffffffff0000000000000000000000000000000000000000000000000000000082169050919050565b600073ffffffffffffffffffffffffffffffffffffffff82169050919050565b6000819050919050565b82818337600083830152505050565b60005b83811015612b11578082015181840152602081019050612af6565b83811115612b20576000848401525b50505050565b6000612b3182612ada565b91506000821415612b4557612b44612b99565b5b600182039050919050565b6000612b5b82612ada565b91507fffffffffffffffffffffffffffffffffffffffffffffffffffffffffffffffff821415612b8e57612b8d612b99565b5b600182019050919050565b7f4e487b7100000000000000000000000000000000000000000000000000000000600052601160045260246000fd5b6000601f19601f8301169050919050565b612be281612a66565b8114612bed57600080fd5b50565b612bf981612a84565b8114612c0457600080fd5b50565b612c1081612a8e565b8114612c1b57600080fd5b50565b612c2781612ada565b8114612c3257600080fd5b5056fea2646970667358221220fbcf0cf4cc1685b9db6ff2ba90b45f6adde336b76a60377cf63d2c5792bc7f3b64736f6c63430008000033",
  "linkReferences": {},
  "deployedLinkReferences": {}
}