{
  "_format": "hh-sol-artifact-1",
  "contractName": "GovernanceToken",
  "sourceName": "contracts/governance_standard/GovernatorContract.sol",
  "abi": [
    {
      "inputs": [],
      "stateMutability": "nonpayable",
      "type": "constructor"
    },
    {
      "anonymous": false,
      "inputs": [
        {
          "indexed": true,
          "internalType": "address",
          "name": "owner",
          "type": "address"
        },
        {
          "indexed": true,
          "internalType": "address",
          "name": "spender",
          "type": "address"
        },
        {
          "indexed": false,
          "internalType": "uint256",
          "name": "value",
          "type": "uint256"
        }
      ],
      "name": "Approval",
      "type": "event"
    },
    {
      "anonymous": false,
      "inputs": [
        {
          "indexed": true,
          "internalType": "address",
          "name": "delegator",
          "type": "address"
        },
        {
          "indexed": true,
          "internalType": "address",
          "name": "fromDelegate",
          "type": "address"
        },
        {
          "indexed": true,
          "internalType": "address",
          "name": "toDelegate",
          "type": "address"
        }
      ],
      "name": "DelegateChanged",
      "type": "event"
    },
    {
      "anonymous": false,
      "inputs": [
        {
          "indexed": true,
          "internalType": "address",
          "name": "delegate",
          "type": "address"
        },
        {
          "indexed": false,
          "internalType": "uint256",
          "name": "previousBalance",
          "type": "uint256"
        },
        {
          "indexed": false,
          "internalType": "uint256",
          "name": "newBalance",
          "type": "uint256"
        }
      ],
      "name": "DelegateVotesChanged",
      "type": "event"
    },
    {
      "anonymous": false,
      "inputs": [
        {
          "indexed": true,
          "internalType": "address",
          "name": "from",
          "type": "address"
        },
        {
          "indexed": true,
          "internalType": "address",
          "name": "to",
          "type": "address"
        },
        {
          "indexed": false,
          "internalType": "uint256",
          "name": "value",
          "type": "uint256"
        }
      ],
      "name": "Transfer",
      "type": "event"
    },
    {
      "inputs": [],
      "name": "DOMAIN_SEPARATOR",
      "outputs": [
        {
          "internalType": "bytes32",
          "name": "",
          "type": "bytes32"
        }
      ],
      "stateMutability": "view",
      "type": "function"
    },
    {
      "inputs": [
        {
          "internalType": "address",
          "name": "owner",
          "type": "address"
        },
        {
          "internalType": "address",
          "name": "spender",
          "type": "address"
        }
      ],
      "name": "allowance",
      "outputs": [
        {
          "internalType": "uint256",
          "name": "",
          "type": "uint256"
        }
      ],
      "stateMutability": "view",
      "type": "function"
    },
    {
      "inputs": [
        {
          "internalType": "address",
          "name": "spender",
          "type": "address"
        },
        {
          "internalType": "uint256",
          "name": "amount",
          "type": "uint256"
        }
      ],
      "name": "approve",
      "outputs": [
        {
          "internalType": "bool",
          "name": "",
          "type": "bool"
        }
      ],
      "stateMutability": "nonpayable",
      "type": "function"
    },
    {
      "inputs": [
        {
          "internalType": "address",
          "name": "account",
          "type": "address"
        }
      ],
      "name": "balanceOf",
      "outputs": [
        {
          "internalType": "uint256",
          "name": "",
          "type": "uint256"
        }
      ],
      "stateMutability": "view",
      "type": "function"
    },
    {
      "inputs": [
        {
          "internalType": "address",
          "name": "account",
          "type": "address"
        },
        {
          "internalType": "uint32",
          "name": "pos",
          "type": "uint32"
        }
      ],
      "name": "checkpoints",
      "outputs": [
        {
          "components": [
            {
              "internalType": "uint32",
              "name": "fromBlock",
              "type": "uint32"
            },
            {
              "internalType": "uint224",
              "name": "votes",
              "type": "uint224"
            }
          ],
          "internalType": "struct ERC20Votes.Checkpoint",
          "name": "",
          "type": "tuple"
        }
      ],
      "stateMutability": "view",
      "type": "function"
    },
    {
      "inputs": [],
      "name": "decimals",
      "outputs": [
        {
          "internalType": "uint8",
          "name": "",
          "type": "uint8"
        }
      ],
      "stateMutability": "view",
      "type": "function"
    },
    {
      "inputs": [
        {
          "internalType": "address",
          "name": "spender",
          "type": "address"
        },
        {
          "internalType": "uint256",
          "name": "subtractedValue",
          "type": "uint256"
        }
      ],
      "name": "decreaseAllowance",
      "outputs": [
        {
          "internalType": "bool",
          "name": "",
          "type": "bool"
        }
      ],
      "stateMutability": "nonpayable",
      "type": "function"
    },
    {
      "inputs": [
        {
          "internalType": "address",
          "name": "delegatee",
          "type": "address"
        }
      ],
      "name": "delegate",
      "outputs": [],
      "stateMutability": "nonpayable",
      "type": "function"
    },
    {
      "inputs": [
        {
          "internalType": "address",
          "name": "delegatee",
          "type": "address"
        },
        {
          "internalType": "uint256",
          "name": "nonce",
          "type": "uint256"
        },
        {
          "internalType": "uint256",
          "name": "expiry",
          "type": "uint256"
        },
        {
          "internalType": "uint8",
          "name": "v",
          "type": "uint8"
        },
        {
          "internalType": "bytes32",
          "name": "r",
          "type": "bytes32"
        },
        {
          "internalType": "bytes32",
          "name": "s",
          "type": "bytes32"
        }
      ],
      "name": "delegateBySig",
      "outputs": [],
      "stateMutability": "nonpayable",
      "type": "function"
    },
    {
      "inputs": [
        {
          "internalType": "address",
          "name": "account",
          "type": "address"
        }
      ],
      "name": "delegates",
      "outputs": [
        {
          "internalType": "address",
          "name": "",
          "type": "address"
        }
      ],
      "stateMutability": "view",
      "type": "function"
    },
    {
      "inputs": [
        {
          "internalType": "uint256",
          "name": "blockNumber",
          "type": "uint256"
        }
      ],
      "name": "getPastTotalSupply",
      "outputs": [
        {
          "internalType": "uint256",
          "name": "",
          "type": "uint256"
        }
      ],
      "stateMutability": "view",
      "type": "function"
    },
    {
      "inputs": [
        {
          "internalType": "address",
          "name": "account",
          "type": "address"
        },
        {
          "internalType": "uint256",
          "name": "blockNumber",
          "type": "uint256"
        }
      ],
      "name": "getPastVotes",
      "outputs": [
        {
          "internalType": "uint256",
          "name": "",
          "type": "uint256"
        }
      ],
      "stateMutability": "view",
      "type": "function"
    },
    {
      "inputs": [
        {
          "internalType": "address",
          "name": "account",
          "type": "address"
        }
      ],
      "name": "getVotes",
      "outputs": [
        {
          "internalType": "uint256",
          "name": "",
          "type": "uint256"
        }
      ],
      "stateMutability": "view",
      "type": "function"
    },
    {
      "inputs": [
        {
          "internalType": "address",
          "name": "spender",
          "type": "address"
        },
        {
          "internalType": "uint256",
          "name": "addedValue",
          "type": "uint256"
        }
      ],
      "name": "increaseAllowance",
      "outputs": [
        {
          "internalType": "bool",
          "name": "",
          "type": "bool"
        }
      ],
      "stateMutability": "nonpayable",
      "type": "function"
    },
    {
      "inputs": [],
      "name": "name",
      "outputs": [
        {
          "internalType": "string",
          "name": "",
          "type": "string"
        }
      ],
      "stateMutability": "view",
      "type": "function"
    },
    {
      "inputs": [
        {
          "internalType": "address",
          "name": "owner",
          "type": "address"
        }
      ],
      "name": "nonces",
      "outputs": [
        {
          "internalType": "uint256",
          "name": "",
          "type": "uint256"
        }
      ],
      "stateMutability": "view",
      "type": "function"
    },
    {
      "inputs": [
        {
          "internalType": "address",
          "name": "account",
          "type": "address"
        }
      ],
      "name": "numCheckpoints",
      "outputs": [
        {
          "internalType": "uint32",
          "name": "",
          "type": "uint32"
        }
      ],
      "stateMutability": "view",
      "type": "function"
    },
    {
      "inputs": [
        {
          "internalType": "address",
          "name": "owner",
          "type": "address"
        },
        {
          "internalType": "address",
          "name": "spender",
          "type": "address"
        },
        {
          "internalType": "uint256",
          "name": "value",
          "type": "uint256"
        },
        {
          "internalType": "uint256",
          "name": "deadline",
          "type": "uint256"
        },
        {
          "internalType": "uint8",
          "name": "v",
          "type": "uint8"
        },
        {
          "internalType": "bytes32",
          "name": "r",
          "type": "bytes32"
        },
        {
          "internalType": "bytes32",
          "name": "s",
          "type": "bytes32"
        }
      ],
      "name": "permit",
      "outputs": [],
      "stateMutability": "nonpayable",
      "type": "function"
    },
    {
      "inputs": [],
      "name": "s_maxSupply",
      "outputs": [
        {
          "internalType": "uint256",
          "name": "",
          "type": "uint256"
        }
      ],
      "stateMutability": "view",
      "type": "function"
    },
    {
      "inputs": [],
      "name": "symbol",
      "outputs": [
        {
          "internalType": "string",
          "name": "",
          "type": "string"
        }
      ],
      "stateMutability": "view",
      "type": "function"
    },
    {
      "inputs": [],
      "name": "totalSupply",
      "outputs": [
        {
          "internalType": "uint256",
          "name": "",
          "type": "uint256"
        }
      ],
      "stateMutability": "view",
      "type": "function"
    },
    {
      "inputs": [
        {
          "internalType": "address",
          "name": "to",
          "type": "address"
        },
        {
          "internalType": "uint256",
          "name": "amount",
          "type": "uint256"
        }
      ],
      "name": "transfer",
      "outputs": [
        {
          "internalType": "bool",
          "name": "",
          "type": "bool"
        }
      ],
      "stateMutability": "nonpayable",
      "type": "function"
    },
    {
      "inputs": [
        {
          "internalType": "address",
          "name": "from",
          "type": "address"
        },
        {
          "internalType": "address",
          "name": "to",
          "type": "address"
        },
        {
          "internalType": "uint256",
          "name": "amount",
          "type": "uint256"
        }
      ],
      "name": "transferFrom",
      "outputs": [
        {
          "internalType": "bool",
          "name": "",
          "type": "bool"
        }
      ],
      "stateMutability": "nonpayable",
      "type": "function"
    }
  ],
  "bytecode": "0x6101606040527f6e71edae12b1b97f4d1f60370fef10105fa2faae0126114a169c64845d6126c96101409081525069d3c21bcecceda10000006009553480156200004857600080fd5b506040518060400160405280600f81526020017f476f7665726e616e6365546f6b656e0000000000000000000000000000000000815250806040518060400160405280600181526020017f31000000000000000000000000000000000000000000000000000000000000008152506040518060400160405280600f81526020017f476f7665726e616e6365546f6b656e00000000000000000000000000000000008152506040518060400160405280600281526020017f475400000000000000000000000000000000000000000000000000000000000081525081600390805190602001906200013a92919062000bf6565b5080600490805190602001906200015392919062000bf6565b50505060008280519060200120905060008280519060200120905060007f8b73c3c69bb8fe3d512ecc4cf759cc79239f7b179b0ffacaa9a75d522b39400f90508260e081815250508161010081815250504660a08181525050620001bf8184846200022660201b60201c565b608081815250503073ffffffffffffffffffffffffffffffffffffffff1660c08173ffffffffffffffffffffffffffffffffffffffff1660601b8152505080610120818152505050505050505062000220336009546200026260201b60201c565b62001107565b600083838346306040516020016200024395949392919062000e53565b6040516020818303038152906040528051906020012090509392505050565b6200027982826200027d60201b62000fdc1760201c565b5050565b6200029482826200033b60201b620010691760201c565b620002a4620004b460201b60201c565b7bffffffffffffffffffffffffffffffffffffffffffffffffffffffff16620002d2620004d860201b60201c565b111562000316576040517f08c379a00000000000000000000000000000000000000000000000000000000081526004016200030d9062000eb0565b60405180910390fd5b620003356008620004e260201b620011c91783620004fa60201b60201c565b50505050565b600073ffffffffffffffffffffffffffffffffffffffff168273ffffffffffffffffffffffffffffffffffffffff161415620003ae576040517f08c379a0000000000000000000000000000000000000000000000000000000008152600401620003a59062000f16565b60405180910390fd5b620003c2600083836200081760201b60201c565b8060026000828254620003d6919062000f93565b92505081905550806000808473ffffffffffffffffffffffffffffffffffffffff1673ffffffffffffffffffffffffffffffffffffffff16815260200190815260200160002060008282546200042d919062000f93565b925050819055508173ffffffffffffffffffffffffffffffffffffffff16600073ffffffffffffffffffffffffffffffffffffffff167fddf252ad1be2c89b69c2b068fc378daa952ba7f163c4a11628f55a4df523b3ef8360405162000494919062000f38565b60405180910390a3620004b0600083836200081c60201b60201c565b5050565b60007bffffffffffffffffffffffffffffffffffffffffffffffffffffffff905090565b6000600254905090565b60008183620004f2919062000f93565b905092915050565b600080600085805490509050600081146200059357856001826200051f919062000ff0565b8154811062000557577f4e487b7100000000000000000000000000000000000000000000000000000000600052603260045260246000fd5b9060005260206000200160000160049054906101000a90047bffffffffffffffffffffffffffffffffffffffffffffffffffffffff1662000596565b60005b7bffffffffffffffffffffffffffffffffffffffffffffffffffffffff169250620005c283858760201c565b91506000811180156200063f57504386600183620005e1919062000ff0565b8154811062000619577f4e487b7100000000000000000000000000000000000000000000000000000000600052603260045260246000fd5b9060005260206000200160000160009054906101000a900463ffffffff1663ffffffff16145b1562000704576200065b826200083960201b620011df1760201c565b866001836200066b919062000ff0565b81548110620006a3577f4e487b7100000000000000000000000000000000000000000000000000000000600052603260045260246000fd5b9060005260206000200160000160046101000a8154817bffffffffffffffffffffffffffffffffffffffffffffffffffffffff02191690837bffffffffffffffffffffffffffffffffffffffffffffffffffffffff1602179055506200080e565b8560405180604001604052806200072643620008a760201b6200124a1760201c565b63ffffffff16815260200162000747856200083960201b620011df1760201c565b7bffffffffffffffffffffffffffffffffffffffffffffffffffffffff168152509080600181540180825580915050600190039060005260206000200160009091909190915060008201518160000160006101000a81548163ffffffff021916908363ffffffff16021790555060208201518160000160046101000a8154817bffffffffffffffffffffffffffffffffffffffffffffffffffffffff02191690837bffffffffffffffffffffffffffffffffffffffffffffffffffffffff16021790555050505b50935093915050565b505050565b62000834838383620008fd60201b6200129d1760201c565b505050565b60007bffffffffffffffffffffffffffffffffffffffffffffffffffffffff80168211156200089f576040517f08c379a0000000000000000000000000000000000000000000000000000000008152600401620008969062000ed2565b60405180910390fd5b819050919050565b600063ffffffff8016821115620008f5576040517f08c379a0000000000000000000000000000000000000000000000000000000008152600401620008ec9062000ef4565b60405180910390fd5b819050919050565b620009158383836200094d60201b620012c81760201c565b620009486200092a846200095260201b60201c565b6200093b846200095260201b60201c565b83620009bb60201b60201c565b505050565b505050565b6000600660008373ffffffffffffffffffffffffffffffffffffffff1673ffffffffffffffffffffffffffffffffffffffff16815260200190815260200160002060009054906101000a900473ffffffffffffffffffffffffffffffffffffffff169050919050565b8173ffffffffffffffffffffffffffffffffffffffff168373ffffffffffffffffffffffffffffffffffffffff1614158015620009f85750600081115b1562000bd957600073ffffffffffffffffffffffffffffffffffffffff168373ffffffffffffffffffffffffffffffffffffffff161462000aeb5760008062000a92600760008773ffffffffffffffffffffffffffffffffffffffff1673ffffffffffffffffffffffffffffffffffffffff16815260200190815260200160002062000bde60201b620012cd1785620004fa60201b60201c565b915091508473ffffffffffffffffffffffffffffffffffffffff167fdec2bacdd2f05b59de34da9b523dff8be42e5e38e818c82fdb0bae774387a724838360405162000ae092919062000f55565b60405180910390a250505b600073ffffffffffffffffffffffffffffffffffffffff168273ffffffffffffffffffffffffffffffffffffffff161462000bd85760008062000b7f600760008673ffffffffffffffffffffffffffffffffffffffff1673ffffffffffffffffffffffffffffffffffffffff168152602001908152602001600020620004e260201b620011c91785620004fa60201b60201c565b915091508373ffffffffffffffffffffffffffffffffffffffff167fdec2bacdd2f05b59de34da9b523dff8be42e5e38e818c82fdb0bae774387a724838360405162000bcd92919062000f55565b60405180910390a250505b5b505050565b6000818362000bee919062000ff0565b905092915050565b82805462000c049062001073565b90600052602060002090601f01602090048101928262000c28576000855562000c74565b82601f1062000c4357805160ff191683800117855562000c74565b8280016001018555821562000c74579182015b8281111562000c7357825182559160200191906001019062000c56565b5b50905062000c83919062000c87565b5090565b5b8082111562000ca257600081600090555060010162000c88565b5090565b62000cb1816200102b565b82525050565b62000cc2816200103f565b82525050565b600062000cd760308362000f82565b91507f4552433230566f7465733a20746f74616c20737570706c79207269736b73206f60008301527f766572666c6f77696e6720766f746573000000000000000000000000000000006020830152604082019050919050565b600062000d3f60278362000f82565b91507f53616665436173743a2076616c756520646f65736e27742066697420696e203260008301527f32342062697473000000000000000000000000000000000000000000000000006020830152604082019050919050565b600062000da760268362000f82565b91507f53616665436173743a2076616c756520646f65736e27742066697420696e203360008301527f32206269747300000000000000000000000000000000000000000000000000006020830152604082019050919050565b600062000e0f601f8362000f82565b91507f45524332303a206d696e7420746f20746865207a65726f2061646472657373006000830152602082019050919050565b62000e4d8162001069565b82525050565b600060a08201905062000e6a600083018862000cb7565b62000e79602083018762000cb7565b62000e88604083018662000cb7565b62000e97606083018562000e42565b62000ea6608083018462000ca6565b9695505050505050565b6000602082019050818103600083015262000ecb8162000cc8565b9050919050565b6000602082019050818103600083015262000eed8162000d30565b9050919050565b6000602082019050818103600083015262000f0f8162000d98565b9050919050565b6000602082019050818103600083015262000f318162000e00565b9050919050565b600060208201905062000f4f600083018462000e42565b92915050565b600060408201905062000f6c600083018562000e42565b62000f7b602083018462000e42565b9392505050565b600082825260208201905092915050565b600062000fa08262001069565b915062000fad8362001069565b9250827fffffffffffffffffffffffffffffffffffffffffffffffffffffffffffffffff0382111562000fe55762000fe4620010a9565b5b828201905092915050565b600062000ffd8262001069565b91506200100a8362001069565b92508282101562001020576200101f620010a9565b5b828203905092915050565b6000620010388262001049565b9050919050565b6000819050919050565b600073ffffffffffffffffffffffffffffffffffffffff82169050919050565b6000819050919050565b600060028204905060018216806200108c57607f821691505b60208210811415620010a357620010a2620010d8565b5b50919050565b7f4e487b7100000000000000000000000000000000000000000000000000000000600052601160045260246000fd5b7f4e487b7100000000000000000000000000000000000000000000000000000000600052602260045260246000fd5b60805160a05160c05160601c60e05161010051610120516101405161394b620011656000396000610d2401526000611871015260006118b301526000611892015260006117c70152600061181d01526000611846015261394b6000f3fe608060405234801561001057600080fd5b506004361061014d5760003560e01c80636fcfff45116100c3578063a457c2d71161007c578063a457c2d714610402578063a9059cbb14610432578063c3cda52014610462578063d505accf1461047e578063dd62ed3e1461049a578063f1127ed8146104ca5761014d565b80636fcfff45146102f457806370a08231146103245780637ecebe00146103545780638e539e8c1461038457806395d89b41146103b45780639ab24eb0146103d25761014d565b80633644e515116101155780633644e5151461020c578063395093511461022a5780633a46b1a81461025a578063587cde1e1461028a5780635c19a95c146102ba5780635d641847146102d65761014d565b806306fdde0314610152578063095ea7b31461017057806318160ddd146101a057806323b872dd146101be578063313ce567146101ee575b600080fd5b61015a6104fa565b60405161016791906132e5565b60405180910390f35b61018a6004803603810190610185919061281c565b61058c565b6040516101979190613171565b60405180910390f35b6101a86105af565b6040516101b591906135a2565b60405180910390f35b6101d860048036038101906101d3919061272f565b6105b9565b6040516101e59190613171565b60405180910390f35b6101f66105e8565b6040516102039190613601565b60405180910390f35b6102146105f1565b604051610221919061318c565b60405180910390f35b610244600480360381019061023f919061281c565b610600565b6040516102519190613171565b60405180910390f35b610274600480360381019061026f919061281c565b6106aa565b60405161028191906135a2565b60405180910390f35b6102a4600480360381019061029f91906126ca565b61073e565b6040516102b19190613156565b60405180910390f35b6102d460048036038101906102cf91906126ca565b6107a7565b005b6102de6107bb565b6040516102eb91906135a2565b60405180910390f35b61030e600480360381019061030991906126ca565b6107c1565b60405161031b91906135e6565b60405180910390f35b61033e600480360381019061033991906126ca565b610815565b60405161034b91906135a2565b60405180910390f35b61036e600480360381019061036991906126ca565b61085d565b60405161037b91906135a2565b60405180910390f35b61039e6004803603810190610399919061291d565b6108ad565b6040516103ab91906135a2565b60405180910390f35b6103bc610903565b6040516103c991906132e5565b60405180910390f35b6103ec60048036038101906103e791906126ca565b610995565b6040516103f991906135a2565b60405180910390f35b61041c6004803603810190610417919061281c565b610acc565b6040516104299190613171565b60405180910390f35b61044c6004803603810190610447919061281c565b610bb6565b6040516104599190613171565b60405180910390f35b61047c60048036038101906104779190612858565b610bd9565b005b6104986004803603810190610493919061277e565b610cdd565b005b6104b460048036038101906104af91906126f3565b610e1f565b6040516104c191906135a2565b60405180910390f35b6104e460048036038101906104df91906128e1565b610ea6565b6040516104f19190613587565b60405180910390f35b606060038054610509906137c8565b80601f0160208091040260200160405190810160405280929190818152602001828054610535906137c8565b80156105825780601f1061055757610100808354040283529160200191610582565b820191906000526020600020905b81548152906001019060200180831161056557829003601f168201915b5050505050905090565b6000806105976112e3565b90506105a48185856112eb565b600191505092915050565b6000600254905090565b6000806105c46112e3565b90506105d18582856114b6565b6105dc858585611542565b60019150509392505050565b60006012905090565b60006105fb6117c3565b905090565b60008061060b6112e3565b905061069f818585600160008673ffffffffffffffffffffffffffffffffffffffff1673ffffffffffffffffffffffffffffffffffffffff16815260200190815260200160002060008973ffffffffffffffffffffffffffffffffffffffff1673ffffffffffffffffffffffffffffffffffffffff1681526020019081526020016000205461069a9190613643565b6112eb565b600191505092915050565b60004382106106ee576040517f08c379a00000000000000000000000000000000000000000000000000000000081526004016106e590613347565b60405180910390fd5b610736600760008573ffffffffffffffffffffffffffffffffffffffff1673ffffffffffffffffffffffffffffffffffffffff168152602001908152602001600020836118dd565b905092915050565b6000600660008373ffffffffffffffffffffffffffffffffffffffff1673ffffffffffffffffffffffffffffffffffffffff16815260200190815260200160002060009054906101000a900473ffffffffffffffffffffffffffffffffffffffff169050919050565b6107b86107b26112e3565b82611a35565b50565b60095481565b600061080e600760008473ffffffffffffffffffffffffffffffffffffffff1673ffffffffffffffffffffffffffffffffffffffff1681526020019081526020016000208054905061124a565b9050919050565b60008060008373ffffffffffffffffffffffffffffffffffffffff1673ffffffffffffffffffffffffffffffffffffffff168152602001908152602001600020549050919050565b60006108a6600560008473ffffffffffffffffffffffffffffffffffffffff1673ffffffffffffffffffffffffffffffffffffffff168152602001908152602001600020611b4f565b9050919050565b60004382106108f1576040517f08c379a00000000000000000000000000000000000000000000000000000000081526004016108e890613347565b60405180910390fd5b6108fc6008836118dd565b9050919050565b606060048054610912906137c8565b80601f016020809104026020016040519081016040528092919081815260200182805461093e906137c8565b801561098b5780601f106109605761010080835404028352916020019161098b565b820191906000526020600020905b81548152906001019060200180831161096e57829003601f168201915b5050505050905090565b600080600760008473ffffffffffffffffffffffffffffffffffffffff1673ffffffffffffffffffffffffffffffffffffffff16815260200190815260200160002080549050905060008114610aa357600760008473ffffffffffffffffffffffffffffffffffffffff1673ffffffffffffffffffffffffffffffffffffffff168152602001908152602001600020600182610a3191906136ca565b81548110610a68577f4e487b7100000000000000000000000000000000000000000000000000000000600052603260045260246000fd5b9060005260206000200160000160049054906101000a90047bffffffffffffffffffffffffffffffffffffffffffffffffffffffff16610aa6565b60005b7bffffffffffffffffffffffffffffffffffffffffffffffffffffffff16915050919050565b600080610ad76112e3565b90506000600160008373ffffffffffffffffffffffffffffffffffffffff1673ffffffffffffffffffffffffffffffffffffffff16815260200190815260200160002060008673ffffffffffffffffffffffffffffffffffffffff1673ffffffffffffffffffffffffffffffffffffffff16815260200190815260200160002054905083811015610b9d576040517f08c379a0000000000000000000000000000000000000000000000000000000008152600401610b9490613547565b60405180910390fd5b610baa82868684036112eb565b60019250505092915050565b600080610bc16112e3565b9050610bce818585611542565b600191505092915050565b83421115610c1c576040517f08c379a0000000000000000000000000000000000000000000000000000000008152600401610c1390613367565b60405180910390fd5b6000610c7e610c767fe48329057bfd03d55e49b547132e39cffd9c1820ad7b9d4c5307691425d15adf898989604051602001610c5b9493929190613208565b60405160208183030381529060405280519060200120611b5d565b858585611b77565b9050610c8981611ba2565b8614610cca576040517f08c379a0000000000000000000000000000000000000000000000000000000008152600401610cc1906133a7565b60405180910390fd5b610cd48188611a35565b50505050505050565b83421115610d20576040517f08c379a0000000000000000000000000000000000000000000000000000000008152600401610d1790613407565b60405180910390fd5b60007f0000000000000000000000000000000000000000000000000000000000000000888888610d4f8c611ba2565b89604051602001610d65969594939291906131a7565b6040516020818303038152906040528051906020012090506000610d8882611b5d565b90506000610d9882878787611b77565b90508973ffffffffffffffffffffffffffffffffffffffff168173ffffffffffffffffffffffffffffffffffffffff1614610e08576040517f08c379a0000000000000000000000000000000000000000000000000000000008152600401610dff90613487565b60405180910390fd5b610e138a8a8a6112eb565b50505050505050505050565b6000600160008473ffffffffffffffffffffffffffffffffffffffff1673ffffffffffffffffffffffffffffffffffffffff16815260200190815260200160002060008373ffffffffffffffffffffffffffffffffffffffff1673ffffffffffffffffffffffffffffffffffffffff16815260200190815260200160002054905092915050565b610eae612623565b600760008473ffffffffffffffffffffffffffffffffffffffff1673ffffffffffffffffffffffffffffffffffffffff1681526020019081526020016000208263ffffffff1681548110610f2b577f4e487b7100000000000000000000000000000000000000000000000000000000600052603260045260246000fd5b906000526020600020016040518060400160405290816000820160009054906101000a900463ffffffff1663ffffffff1663ffffffff1681526020016000820160049054906101000a90047bffffffffffffffffffffffffffffffffffffffffffffffffffffffff167bffffffffffffffffffffffffffffffffffffffffffffffffffffffff167bffffffffffffffffffffffffffffffffffffffffffffffffffffffff1681525050905092915050565b610fe68282611069565b610fee611c00565b7bffffffffffffffffffffffffffffffffffffffffffffffffffffffff166110146105af565b1115611055576040517f08c379a000000000000000000000000000000000000000000000000000000000815260040161104c906134a7565b60405180910390fd5b61106360086111c983611c24565b50505050565b600073ffffffffffffffffffffffffffffffffffffffff168273ffffffffffffffffffffffffffffffffffffffff1614156110d9576040517f08c379a00000000000000000000000000000000000000000000000000000000081526004016110d090613567565b60405180910390fd5b6110e560008383611f0e565b80600260008282546110f79190613643565b92505081905550806000808473ffffffffffffffffffffffffffffffffffffffff1673ffffffffffffffffffffffffffffffffffffffff168152602001908152602001600020600082825461114c9190613643565b925050819055508173ffffffffffffffffffffffffffffffffffffffff16600073ffffffffffffffffffffffffffffffffffffffff167fddf252ad1be2c89b69c2b068fc378daa952ba7f163c4a11628f55a4df523b3ef836040516111b191906135a2565b60405180910390a36111c560008383611f13565b5050565b600081836111d79190613643565b905092915050565b60007bffffffffffffffffffffffffffffffffffffffffffffffffffffffff8016821115611242576040517f08c379a0000000000000000000000000000000000000000000000000000000008152600401611239906134c7565b60405180910390fd5b819050919050565b600063ffffffff8016821115611295576040517f08c379a000000000000000000000000000000000000000000000000000000000815260040161128c90613507565b60405180910390fd5b819050919050565b6112a88383836112c8565b6112c36112b48461073e565b6112bd8461073e565b83611f23565b505050565b505050565b600081836112db91906136ca565b905092915050565b600033905090565b600073ffffffffffffffffffffffffffffffffffffffff168373ffffffffffffffffffffffffffffffffffffffff16141561135b576040517f08c379a000000000000000000000000000000000000000000000000000000000815260040161135290613527565b60405180910390fd5b600073ffffffffffffffffffffffffffffffffffffffff168273ffffffffffffffffffffffffffffffffffffffff1614156113cb576040517f08c379a00000000000000000000000000000000000000000000000000000000081526004016113c2906133c7565b60405180910390fd5b80600160008573ffffffffffffffffffffffffffffffffffffffff1673ffffffffffffffffffffffffffffffffffffffff16815260200190815260200160002060008473ffffffffffffffffffffffffffffffffffffffff1673ffffffffffffffffffffffffffffffffffffffff168152602001908152602001600020819055508173ffffffffffffffffffffffffffffffffffffffff168373ffffffffffffffffffffffffffffffffffffffff167f8c5be1e5ebec7d5bd14f71427d1e84f3dd0314c0f7b2291e5b200ac8c7c3b925836040516114a991906135a2565b60405180910390a3505050565b60006114c28484610e1f565b90507fffffffffffffffffffffffffffffffffffffffffffffffffffffffffffffffff811461153c578181101561152e576040517f08c379a0000000000000000000000000000000000000000000000000000000008152600401611525906133e7565b60405180910390fd5b61153b84848484036112eb565b5b50505050565b600073ffffffffffffffffffffffffffffffffffffffff168373ffffffffffffffffffffffffffffffffffffffff1614156115b2576040517f08c379a00000000000000000000000000000000000000000000000000000000081526004016115a9906134e7565b60405180910390fd5b600073ffffffffffffffffffffffffffffffffffffffff168273ffffffffffffffffffffffffffffffffffffffff161415611622576040517f08c379a000000000000000000000000000000000000000000000000000000000815260040161161990613327565b60405180910390fd5b61162d838383611f0e565b60008060008573ffffffffffffffffffffffffffffffffffffffff1673ffffffffffffffffffffffffffffffffffffffff168152602001908152602001600020549050818110156116b3576040517f08c379a00000000000000000000000000000000000000000000000000000000081526004016116aa90613427565b60405180910390fd5b8181036000808673ffffffffffffffffffffffffffffffffffffffff1673ffffffffffffffffffffffffffffffffffffffff16815260200190815260200160002081905550816000808573ffffffffffffffffffffffffffffffffffffffff1673ffffffffffffffffffffffffffffffffffffffff16815260200190815260200160002060008282546117469190613643565b925050819055508273ffffffffffffffffffffffffffffffffffffffff168473ffffffffffffffffffffffffffffffffffffffff167fddf252ad1be2c89b69c2b068fc378daa952ba7f163c4a11628f55a4df523b3ef846040516117aa91906135a2565b60405180910390a36117bd848484611f13565b50505050565b60007f000000000000000000000000000000000000000000000000000000000000000073ffffffffffffffffffffffffffffffffffffffff163073ffffffffffffffffffffffffffffffffffffffff1614801561183f57507f000000000000000000000000000000000000000000000000000000000000000046145b1561186c577f000000000000000000000000000000000000000000000000000000000000000090506118da565b6118d77f00000000000000000000000000000000000000000000000000000000000000007f00000000000000000000000000000000000000000000000000000000000000007f000000000000000000000000000000000000000000000000000000000000000061211c565b90505b90565b6000808380549050905060005b818110156119825760006118fe8284612156565b90508486828154811061193a577f4e487b7100000000000000000000000000000000000000000000000000000000600052603260045260246000fd5b9060005260206000200160000160009054906101000a900463ffffffff1663ffffffff16111561196c5780925061197c565b6001816119799190613643565b91505b506118ea565b60008214611a0a578460018361199891906136ca565b815481106119cf577f4e487b7100000000000000000000000000000000000000000000000000000000600052603260045260246000fd5b9060005260206000200160000160049054906101000a90047bffffffffffffffffffffffffffffffffffffffffffffffffffffffff16611a0d565b60005b7bffffffffffffffffffffffffffffffffffffffffffffffffffffffff169250505092915050565b6000611a408361073e565b90506000611a4d84610815565b905082600660008673ffffffffffffffffffffffffffffffffffffffff1673ffffffffffffffffffffffffffffffffffffffff16815260200190815260200160002060006101000a81548173ffffffffffffffffffffffffffffffffffffffff021916908373ffffffffffffffffffffffffffffffffffffffff1602179055508273ffffffffffffffffffffffffffffffffffffffff168273ffffffffffffffffffffffffffffffffffffffff168573ffffffffffffffffffffffffffffffffffffffff167f3134e8a2e6d97e929a7e54011ea5485d7d196dd5f0ba4d4ef95803e8e3fc257f60405160405180910390a4611b49828483611f23565b50505050565b600081600001549050919050565b6000611b70611b6a6117c3565b8361217c565b9050919050565b6000806000611b88878787876121af565b91509150611b95816122bc565b8192505050949350505050565b600080600560008473ffffffffffffffffffffffffffffffffffffffff1673ffffffffffffffffffffffffffffffffffffffff1681526020019081526020016000209050611bef81611b4f565b9150611bfa8161260d565b50919050565b60007bffffffffffffffffffffffffffffffffffffffffffffffffffffffff905090565b60008060008580549050905060008114611cb85785600182611c4691906136ca565b81548110611c7d577f4e487b7100000000000000000000000000000000000000000000000000000000600052603260045260246000fd5b9060005260206000200160000160049054906101000a90047bffffffffffffffffffffffffffffffffffffffffffffffffffffffff16611cbb565b60005b7bffffffffffffffffffffffffffffffffffffffffffffffffffffffff169250611ce983858763ffffffff16565b9150600081118015611d6257504386600183611d0591906136ca565b81548110611d3c577f4e487b7100000000000000000000000000000000000000000000000000000000600052603260045260246000fd5b9060005260206000200160000160009054906101000a900463ffffffff1663ffffffff16145b15611e1557611d70826111df565b86600183611d7e91906136ca565b81548110611db5577f4e487b7100000000000000000000000000000000000000000000000000000000600052603260045260246000fd5b9060005260206000200160000160046101000a8154817bffffffffffffffffffffffffffffffffffffffffffffffffffffffff02191690837bffffffffffffffffffffffffffffffffffffffffffffffffffffffff160217905550611f05565b856040518060400160405280611e2a4361124a565b63ffffffff168152602001611e3e856111df565b7bffffffffffffffffffffffffffffffffffffffffffffffffffffffff168152509080600181540180825580915050600190039060005260206000200160009091909190915060008201518160000160006101000a81548163ffffffff021916908363ffffffff16021790555060208201518160000160046101000a8154817bffffffffffffffffffffffffffffffffffffffffffffffffffffffff02191690837bffffffffffffffffffffffffffffffffffffffffffffffffffffffff16021790555050505b50935093915050565b505050565b611f1e83838361129d565b505050565b8173ffffffffffffffffffffffffffffffffffffffff168373ffffffffffffffffffffffffffffffffffffffff1614158015611f5f5750600081115b1561211757600073ffffffffffffffffffffffffffffffffffffffff168373ffffffffffffffffffffffffffffffffffffffff161461203d57600080611fe6600760008773ffffffffffffffffffffffffffffffffffffffff1673ffffffffffffffffffffffffffffffffffffffff1681526020019081526020016000206112cd85611c24565b915091508473ffffffffffffffffffffffffffffffffffffffff167fdec2bacdd2f05b59de34da9b523dff8be42e5e38e818c82fdb0bae774387a72483836040516120329291906135bd565b60405180910390a250505b600073ffffffffffffffffffffffffffffffffffffffff168273ffffffffffffffffffffffffffffffffffffffff1614612116576000806120bf600760008673ffffffffffffffffffffffffffffffffffffffff1673ffffffffffffffffffffffffffffffffffffffff1681526020019081526020016000206111c985611c24565b915091508373ffffffffffffffffffffffffffffffffffffffff167fdec2bacdd2f05b59de34da9b523dff8be42e5e38e818c82fdb0bae774387a724838360405161210b9291906135bd565b60405180910390a250505b5b505050565b6000838383463060405160200161213795949392919061324d565b6040516020818303038152906040528051906020012090509392505050565b600060028284186121679190613699565b8284166121749190613643565b905092915050565b6000828260405160200161219192919061311f565b60405160208183030381529060405280519060200120905092915050565b6000807f7fffffffffffffffffffffffffffffff5d576e7357a4501ddfe92f46681b20a08360001c11156121ea5760006003915091506122b3565b601b8560ff16141580156122025750601c8560ff1614155b156122145760006004915091506122b3565b60006001878787876040516000815260200160405260405161223994939291906132a0565b6020604051602081039080840390855afa15801561225b573d6000803e3d6000fd5b505050602060405103519050600073ffffffffffffffffffffffffffffffffffffffff168173ffffffffffffffffffffffffffffffffffffffff1614156122aa576000600192509250506122b3565b80600092509250505b94509492505050565b600060048111156122f6577f4e487b7100000000000000000000000000000000000000000000000000000000600052602160045260246000fd5b81600481111561232f577f4e487b7100000000000000000000000000000000000000000000000000000000600052602160045260246000fd5b141561233a5761260a565b60016004811115612374577f4e487b7100000000000000000000000000000000000000000000000000000000600052602160045260246000fd5b8160048111156123ad577f4e487b7100000000000000000000000000000000000000000000000000000000600052602160045260246000fd5b14156123ee576040517f08c379a00000000000000000000000000000000000000000000000000000000081526004016123e590613307565b60405180910390fd5b60026004811115612428577f4e487b7100000000000000000000000000000000000000000000000000000000600052602160045260246000fd5b816004811115612461577f4e487b7100000000000000000000000000000000000000000000000000000000600052602160045260246000fd5b14156124a2576040517f08c379a000000000000000000000000000000000000000000000000000000000815260040161249990613387565b60405180910390fd5b600360048111156124dc577f4e487b7100000000000000000000000000000000000000000000000000000000600052602160045260246000fd5b816004811115612515577f4e487b7100000000000000000000000000000000000000000000000000000000600052602160045260246000fd5b1415612556576040517f08c379a000000000000000000000000000000000000000000000000000000000815260040161254d90613447565b60405180910390fd5b60048081111561258f577f4e487b7100000000000000000000000000000000000000000000000000000000600052602160045260246000fd5b8160048111156125c8577f4e487b7100000000000000000000000000000000000000000000000000000000600052602160045260246000fd5b1415612609576040517f08c379a000000000000000000000000000000000000000000000000000000000815260040161260090613467565b60405180910390fd5b5b50565b6001816000016000828254019250508190555050565b6040518060400160405280600063ffffffff16815260200160007bffffffffffffffffffffffffffffffffffffffffffffffffffffffff1681525090565b600081359050612670816138a2565b92915050565b600081359050612685816138b9565b92915050565b60008135905061269a816138d0565b92915050565b6000813590506126af816138e7565b92915050565b6000813590506126c4816138fe565b92915050565b6000602082840312156126dc57600080fd5b60006126ea84828501612661565b91505092915050565b6000806040838503121561270657600080fd5b600061271485828601612661565b925050602061272585828601612661565b9150509250929050565b60008060006060848603121561274457600080fd5b600061275286828701612661565b935050602061276386828701612661565b92505060406127748682870161268b565b9150509250925092565b600080600080600080600060e0888a03121561279957600080fd5b60006127a78a828b01612661565b97505060206127b88a828b01612661565b96505060406127c98a828b0161268b565b95505060606127da8a828b0161268b565b94505060806127eb8a828b016126b5565b93505060a06127fc8a828b01612676565b92505060c061280d8a828b01612676565b91505092959891949750929550565b6000806040838503121561282f57600080fd5b600061283d85828601612661565b925050602061284e8582860161268b565b9150509250929050565b60008060008060008060c0878903121561287157600080fd5b600061287f89828a01612661565b965050602061289089828a0161268b565b95505060406128a189828a0161268b565b94505060606128b289828a016126b5565b93505060806128c389828a01612676565b92505060a06128d489828a01612676565b9150509295509295509295565b600080604083850312156128f457600080fd5b600061290285828601612661565b9250506020612913858286016126a0565b9150509250929050565b60006020828403121561292f57600080fd5b600061293d8482850161268b565b91505092915050565b61294f816136fe565b82525050565b61295e81613710565b82525050565b61296d8161371c565b82525050565b61298461297f8261371c565b6137fa565b82525050565b60006129958261361c565b61299f8185613627565b93506129af818560208601613795565b6129b881613891565b840191505092915050565b60006129d0601883613627565b91507f45434453413a20696e76616c6964207369676e617475726500000000000000006000830152602082019050919050565b6000612a10602383613627565b91507f45524332303a207472616e7366657220746f20746865207a65726f206164647260008301527f65737300000000000000000000000000000000000000000000000000000000006020830152604082019050919050565b6000612a76601f83613627565b91507f4552433230566f7465733a20626c6f636b206e6f7420796574206d696e6564006000830152602082019050919050565b6000612ab6601d83613627565b91507f4552433230566f7465733a207369676e617475726520657870697265640000006000830152602082019050919050565b6000612af6601f83613627565b91507f45434453413a20696e76616c6964207369676e6174757265206c656e677468006000830152602082019050919050565b6000612b36601983613627565b91507f4552433230566f7465733a20696e76616c6964206e6f6e6365000000000000006000830152602082019050919050565b6000612b76602283613627565b91507f45524332303a20617070726f766520746f20746865207a65726f20616464726560008301527f73730000000000000000000000000000000000000000000000000000000000006020830152604082019050919050565b6000612bdc600283613638565b91507f19010000000000000000000000000000000000000000000000000000000000006000830152600282019050919050565b6000612c1c601d83613627565b91507f45524332303a20696e73756666696369656e7420616c6c6f77616e63650000006000830152602082019050919050565b6000612c5c601d83613627565b91507f45524332305065726d69743a206578706972656420646561646c696e650000006000830152602082019050919050565b6000612c9c602683613627565b91507f45524332303a207472616e7366657220616d6f756e742065786365656473206260008301527f616c616e636500000000000000000000000000000000000000000000000000006020830152604082019050919050565b6000612d02602283613627565b91507f45434453413a20696e76616c6964207369676e6174757265202773272076616c60008301527f75650000000000000000000000000000000000000000000000000000000000006020830152604082019050919050565b6000612d68602283613627565b91507f45434453413a20696e76616c6964207369676e6174757265202776272076616c60008301527f75650000000000000000000000000000000000000000000000000000000000006020830152604082019050919050565b6000612dce601e83613627565b91507f45524332305065726d69743a20696e76616c6964207369676e617475726500006000830152602082019050919050565b6000612e0e603083613627565b91507f4552433230566f7465733a20746f74616c20737570706c79207269736b73206f60008301527f766572666c6f77696e6720766f746573000000000000000000000000000000006020830152604082019050919050565b6000612e74602783613627565b91507f53616665436173743a2076616c756520646f65736e27742066697420696e203260008301527f32342062697473000000000000000000000000000000000000000000000000006020830152604082019050919050565b6000612eda602583613627565b91507f45524332303a207472616e736665722066726f6d20746865207a65726f20616460008301527f64726573730000000000000000000000000000000000000000000000000000006020830152604082019050919050565b6000612f40602683613627565b91507f53616665436173743a2076616c756520646f65736e27742066697420696e203360008301527f32206269747300000000000000000000000000000000000000000000000000006020830152604082019050919050565b6000612fa6602483613627565b91507f45524332303a20617070726f76652066726f6d20746865207a65726f2061646460008301527f72657373000000000000000000000000000000000000000000000000000000006020830152604082019050919050565b600061300c602583613627565b91507f45524332303a2064656372656173656420616c6c6f77616e63652062656c6f7760008301527f207a65726f0000000000000000000000000000000000000000000000000000006020830152604082019050919050565b6000613072601f83613627565b91507f45524332303a206d696e7420746f20746865207a65726f2061646472657373006000830152602082019050919050565b6040820160008201516130bb60008501826130f2565b5060208201516130ce60208501826130d4565b50505050565b6130dd81613746565b82525050565b6130ec8161376e565b82525050565b6130fb81613778565b82525050565b61310a81613778565b82525050565b61311981613788565b82525050565b600061312a82612bcf565b91506131368285612973565b6020820191506131468284612973565b6020820191508190509392505050565b600060208201905061316b6000830184612946565b92915050565b60006020820190506131866000830184612955565b92915050565b60006020820190506131a16000830184612964565b92915050565b600060c0820190506131bc6000830189612964565b6131c96020830188612946565b6131d66040830187612946565b6131e360608301866130e3565b6131f060808301856130e3565b6131fd60a08301846130e3565b979650505050505050565b600060808201905061321d6000830187612964565b61322a6020830186612946565b61323760408301856130e3565b61324460608301846130e3565b95945050505050565b600060a0820190506132626000830188612964565b61326f6020830187612964565b61327c6040830186612964565b61328960608301856130e3565b6132966080830184612946565b9695505050505050565b60006080820190506132b56000830187612964565b6132c26020830186613110565b6132cf6040830185612964565b6132dc6060830184612964565b95945050505050565b600060208201905081810360008301526132ff818461298a565b905092915050565b60006020820190508181036000830152613320816129c3565b9050919050565b6000602082019050818103600083015261334081612a03565b9050919050565b6000602082019050818103600083015261336081612a69565b9050919050565b6000602082019050818103600083015261338081612aa9565b9050919050565b600060208201905081810360008301526133a081612ae9565b9050919050565b600060208201905081810360008301526133c081612b29565b9050919050565b600060208201905081810360008301526133e081612b69565b9050919050565b6000602082019050818103600083015261340081612c0f565b9050919050565b6000602082019050818103600083015261342081612c4f565b9050919050565b6000602082019050818103600083015261344081612c8f565b9050919050565b6000602082019050818103600083015261346081612cf5565b9050919050565b6000602082019050818103600083015261348081612d5b565b9050919050565b600060208201905081810360008301526134a081612dc1565b9050919050565b600060208201905081810360008301526134c081612e01565b9050919050565b600060208201905081810360008301526134e081612e67565b9050919050565b6000602082019050818103600083015261350081612ecd565b9050919050565b6000602082019050818103600083015261352081612f33565b9050919050565b6000602082019050818103600083015261354081612f99565b9050919050565b6000602082019050818103600083015261356081612fff565b9050919050565b6000602082019050818103600083015261358081613065565b9050919050565b600060408201905061359c60008301846130a5565b92915050565b60006020820190506135b760008301846130e3565b92915050565b60006040820190506135d260008301856130e3565b6135df60208301846130e3565b9392505050565b60006020820190506135fb6000830184613101565b92915050565b60006020820190506136166000830184613110565b92915050565b600081519050919050565b600082825260208201905092915050565b600081905092915050565b600061364e8261376e565b91506136598361376e565b9250827fffffffffffffffffffffffffffffffffffffffffffffffffffffffffffffffff0382111561368e5761368d613804565b5b828201905092915050565b60006136a48261376e565b91506136af8361376e565b9250826136bf576136be613833565b5b828204905092915050565b60006136d58261376e565b91506136e08361376e565b9250828210156136f3576136f2613804565b5b828203905092915050565b600061370982613726565b9050919050565b60008115159050919050565b6000819050919050565b600073ffffffffffffffffffffffffffffffffffffffff82169050919050565b60007bffffffffffffffffffffffffffffffffffffffffffffffffffffffff82169050919050565b6000819050919050565b600063ffffffff82169050919050565b600060ff82169050919050565b60005b838110156137b3578082015181840152602081019050613798565b838111156137c2576000848401525b50505050565b600060028204905060018216806137e057607f821691505b602082108114156137f4576137f3613862565b5b50919050565b6000819050919050565b7f4e487b7100000000000000000000000000000000000000000000000000000000600052601160045260246000fd5b7f4e487b7100000000000000000000000000000000000000000000000000000000600052601260045260246000fd5b7f4e487b7100000000000000000000000000000000000000000000000000000000600052602260045260246000fd5b6000601f19601f8301169050919050565b6138ab816136fe565b81146138b657600080fd5b50565b6138c28161371c565b81146138cd57600080fd5b50565b6138d98161376e565b81146138e457600080fd5b50565b6138f081613778565b81146138fb57600080fd5b50565b61390781613788565b811461391257600080fd5b5056fea2646970667358221220783c01bdfa3c10009055099559ea0764cca4f16ce53a3cee3d1697065a5fb8f264736f6c63430008000033",
  "linkReferences": {},
  "deployedLinkReferences": {}
}